:0A0000000C9447000C9400000C94CF
:10000A0000000C9400000C9400000C9400000C9466
:10001A0000000C9400000C9400000C9400000C9456
:10002A0000000C9400000C9400000C9400000C9446
:10003A0000000C9400000C9400000C9400000C9436
:10004A0000000C9400000C9400001027E8036400E0
:10005A000A000100001000011000010042504D3A50
:10006A00200080C001002D4E414E00494E4600003E
:10007A00060060026600020026046C0001002A04E1
:10008A006E000000F894EE27ECBBF1E0F5BFE5BF87
:10009A008DE0A2E0BB27ED938A95E9F780E098E02E
:1000AA00A0E6ED930197E9F7EAE7F0E085919591EB
:1000BA00009761F0A591B59105901590BF01F001E7
:1000CA0005900D920197E1F7FB01F0CFEFE5EDBF47
:1000DA00E8E0EEBFC0E6D2E00C940B021A931A2FA6
:1000EA00E12FE064E7B98BE18A95F1F7369A349B00
:1000FA00FECF349AE4B1F5B10C9433031A93A0E11C
:10010A000E940503E0E4E7B9E6EAE6B9E0E0E0BF09
:10011A007724662488249924BB24552410E01034BB
:10012A0070F5E12FA6E6B2E0F0E00E940904FF9321
:10013A00EF93E12FFF27662777270E947005A6E530
:10014A00BEE089EC90E40E94F905DF01CB01E0E012
:10015A00F0E060E872E40E944706DF01CB010E94EA
:10016A007D03A0E0B0E080E893E40E94F9050E94D4
:10017A003905AF91BF91ED93FC931F5FD0CF0C94DB
:10018A003303BA93AA9366970E94680400E010E0CA
:10019A00EC8DA1E0B0E00E948204EA8BFB8B3197E0
:1001AA009F01E1E0F0E0EC8FFD8FAC8DBD8D2A1749
:1001BA003B070CF452C0EA89FB89E88FF98FE88D76
:1001CA00F98DF595E795E88FF98FA88DB98DA00F70
:1001DA00B11F2A173B079CF33197E023F123A88D1F
:1001EA00B98DEA0FFB1F8F01EC8DFD8DE017F1072A
:1001FA0074F50E940E04EC87FD87EC8DFD8D0E943C
:10020A0017040F01F8010E940E04D001ED93FC932C
:10021A00F8010E941704AC85BD85A083B183EC8DDB
:10022A00FD8D0E941A04EA87FB87EC8DFD8D0E94E2
:10023A0023040F01F8010E941A04D001ED93FC93E4
:10024A00F8010E942304AA85BB85A083B183EC8DA3
:10025A00FD8D3196EC8FFD8FA8CFE1E0F0E0E88FBD
:10026A00F98FE5E0F0E0EE8BFF8BEA89FB89A88D38
:10027A00B98DAE17BF070CF0C5C0E88DF98DEE0F2A
:10028A00FF1FEC8BFD8BE0E0EC8FED8FE88DF98D95
:10029A00AC8DBD8DAE17BF070CF0AAC0EE890E94C7
:1002AA008204EA8FFB8FAA8DBB8DAA0FBB1FAA57A8
:1002BA00BD4FED91FD91E887F987EA8DFB8DA6E6A2
:1002CA00B2E00E9426040E94DF040E947604EE83B4
:1002DA00FF83E885F985F595E795E887F987EE8143
:1002EA00FF81F595E795EE83FF834C8D5D8DEA8955
:1002FA00FB894E175F070CF075C0E88DF98DE40F86
:10030A00F51FEA8FFB8F0E940E040E942B040E94A5
:10031A001A04AE81BF810E94A604DB01AE1BBF0B8B
:10032A00FD010E949304EC87FD87EA8DFB8D0E94F4
:10033A001A040E942B040E940E04AE81BF810E94FF
:10034A00A604DB01AE0FBF1FFD010E949304EA87DA
:10035A00FB87FA010E940E04F595E795E88BF98B65
:10036A00FA010E941A04F595E795EE87FF87EA8D50
:10037A00FB8D0E9417040F01AC85BD85E889F989B8
:10038A00EA1BFB0BD001ED93FC93EA8DFB8D0E94D7
:10039A0023040F01AA85BB85EE85FF85EA1BFB0BAB
:1003AA00D001ED93FC93FA010E9417040F01EC852A
:1003BA00FD85A889B989EA0FFB1FD001ED93FC934B
:1003CA00FA010E9423040F01EA85FB85AE85BF85E9
:1003DA00EA0FFB1FD001ED93FC93EC89FD894E0FC8
:1003EA005F1F85CFEC8DFD8D3196EC8FFD8F4ECF43
:1003FA00EE89FF893197EE8BFF8BEC89FD89E88FB7
:10040A00F98F33CF0E946F04A296089500E076DE3A
:10041A00A0E064DE5E2EE62DF0E0EA51FD4F508248
:10042A006394E0E46E1608F473C010E0103490F49C
:10043A000E943304E0E0F0E0ED93FC930E9438045C
:10044A00E12FF0E0EA51FD4FF081E0E0ED93FC93FB
:10045A001F5FECCFE6EAF3E0FA93EA93E6E2F3E011
:10046A00FA93EA93A6E0B0E08CDE88249924BB24B0
:10047A0010E0103238F522970E9438040D901C9033
:10048A000E943804ED91FD91D0010E94A604BF019B
:10049A000E9433040D901C900E943304ED91FD914B
:1004AA00D0010E94A604E60FF71FE883F983A8810A
:1004BA00B9818A169B061CF488809980B12E2296EF
:1004CA001F5FD7CF0B1508F40B2DECE3E09FF0016B
:1004DA00DF01E0E2F0E00E94BE044E2EE0E0EA9383
:1004EA00A0E04BD0A0E6B2E07AD0A42DB0E0EAE0DA
:1004FA00F0E00E94BE04E05DAE2F5DD0A42DBB27C4
:10050A00EAE0F0E00E94C304E05DAE2F54D0662416
:10051A00AEE1B0E00E94AB067BCFFFCF1A931A2F51
:10052A0014FF02C0969A01C0969815FF02C0959AC8
:10053A0001C0959816FF02C0949A01C0949817FFBB
:10054A0002C0939A01C093988DE08A95F1F7C29AF6
:10055A008DE08A95F1F7C2988DE08A95F1F77EC011
:10056A00AA93A881DBDFE881E295E883A881D6DF38
:10057A0085E88A95F1F7219608951A930A931A2F16
:10058A000A81E12FF0E0EA5DFB4FE081E00FAE2F38
:10059A00E7DFA02ED12E1981088123960895A2E0C3
:1005AA000E943D04ACE0DCDFA1E00E943D04E0E0F3
:1005BA00DE2EAE2E08951A931A2F1A3011F0AC14AB
:1005CA0040F0E0E0EA93D394AD2DD7DF1A3009F476
:1005DA0045C0A394C09AA12FC3DFC0983FC00E9410
:1005EA006A049D01D9012F5F3F4FEC911E2FE03025
:1005FA0019F0A12FE0DFF6CF0E9471040C947B035F
:10060A001A931A2F8E9A8D9A8C9A8B9ABA9AB89AAA
:10061A00B99AC298C098C198C12EE12FE058E093C8
:10062A002804E12FE054E0932904A4E1B0E00E94F9
:10063A00AB060E9443040E9443040E944304A0E2C2
:10064A006DDF88EC90E00197F1F7A8E289DFA4E07A
:10065A0087DFA5E885DFA6E083DFA1DF199108958A
:10066A000E94F2047B816A81F981E88177FB770F26
:10067A0067FD7160972F9E5781F078F0983190F45A
:10068A00AA27BB27882708948795B795A7959A958F
:10069A00D1F7EA23FB23682305C0E8947727EE27DE
:1006AA00FF2766276F77769508F4606877F9A9912E
:1006BA00B99189919991EA17FB076807790797FB1E
:1006CA0008950E94F2040E94E8040E9435030E94E1
:1006DA00ED0419F40E94E30409C0E6F70E94E3045A
:1006EA00A0E0B0E080E89FE30E94A3052496089565
:1006FA000E94F20424971A9310E00E944B04E3E844
:10070A00F9EF62E27EE30E94F9050E945004D9DF04
:10071A000E944B040E94F7040E94A3050E94500401
:10072A00E0E0F0E060E07FE30E948B0609F008F465
:10073A0009C00E945504A0E0B0E080E09FE30E9457
:10074A005A0411E00E944B04E0E0F0E060E87EE326
:10075A000E948B0609F008F408C00E944B04E0E0EE
:10076A00F0E060E07FE30E945A04103041F00E94FA
:10077A0055040E940405ED83FE836F8378870E94E7
:10078A0055040E944B040E94F905E983FA836B839E
:10079A007C83A1EBB4EC86E292E40E94F905DF01C6
:1007AA00CB01EDE1F5EE6DE272E40E94F7040E94DE
:1007BA00A3050E946104ACE4B3E584E091E40E94DD
:1007CA00AA050E944B040E94F9057F936F93FF9339
:1007DA00EF93E981FA816B817C81A1E1BDEE8EED17
:1007EA009FE30E94AA050E946104AEE5BBE788EA7E
:1007FA009FE30E94AA05AF91BF918F919F910E949A
:10080A004706188129960895EE0FFF1FEA0FFB1F6E
:10081A000895A8A1B9A1EE0FFF1FAE0FBF1FED915A
:10082A00FD910895A8A1B9A1EFCFAE8DBF8DEE0FAE
:10083A00FF1FAE0FBF1FED91FD910895AE8DBF8DC5
:10084A00E3CFEE0FFF1FAE0FBF1F0895A885B9852E
:10085A000E94A604BF01EA8DFB8D0895E12FA6E24E
:10086A00B3E0F0E0EECFE12FA6EAB3E0F0E0E9CFA3
:10087A000E94B502A3E0B0E00C94AB06A0E30E948C
:10088A00930288EC90E00197F1F70895AD81BE815B
:10089A008F8198850895ED83FE836F837887F6CFDD
:1008AA00ED81FE816F81788508950E94A305ED830D
:1008BA00FE836F8378870895A981BA818B819C8191
:1008CA000E94F90508955A934A933A932A931A93E0
:1008DA000A9308955D814C813B812A81198108819F
:1008EA000895F195E195F0400895F0956095709519
:1008FA00E195FF4F6F4F7F4F0895EE230E2EE8E0EC
:10090A001E2EFD0151F0011420F0FE2FE0E0011827
:10091A0021F0EE0FFF1F0A94E1F70895EF2FFF274A
:10092A00E7FDFFEF0895FE2FFF0FFF0B6F2F7F2FBD
:10093A000895FA9FF02DEB9FF00DEA9FE02DF10D3F
:10094A0008952AD0F6DF0EF4CCDF0895002411248E
:10095A0090E1AA0FBB1F001C111C0E1A1F0A18F4E3
:10096A000E0E1F1E01C0A1609A9599F7FD01D001D4
:10097A00089512D0EBDF0EF4B4DF0895E894B7FFC0
:10098A0004C0B195A195B0406894F7FDAADFDEDFF7
:10099A00FD010EF4A6DF0895E894F7FF02C0A1DF77
:1009AA006894B7FF06C0B195A195B04000F80394CA
:1009BA0000FA0895ED91FC9111970895E881F98163
:1009CA006A817B810895A881B9818A819B81089572
:1009DA00E883F9836A837B8308959A938A93BA9307
:1009EA00AA930895182E862F612D192E972F712DEF
:1009FA001B2EBF2FF12D1A2EAE2FE12D0895309701
:100A0A006040704009F070580895552342F45038F8
:100A1A0011F4E0FF04C03196691F791F6BF050E8AA
:100A2A00572711F45F93CFC05F3F31F0660F000C78
:100A3A0057956795752F08955F9300200AF0CEC0E9
:100A4A00C7C050E8192E1522880F991F9527550FF0
:100A5A00879550E8072E0522660F771F7527550FD1
:100A6A0067950895689401C0E8945F93F2DF70383F
:100A7A0018F07F3F08F4A7C056E1571BAAF4519516
:100A8A0058300EF4593030F0EFEFFFEF6FEF7FE799
:100A9A0077F91AC077275523B9F0EE0FFF1F661FA3
:100AAA00771F5A95D1F710C07727583028F0EF2FC3
:100ABA00F62F672F5850F9CF552331F07695679561
:100ACA00F795E7955A95D1F700200AF40EDF5F9162
:100ADA000895689401C0E894309760407040B1F07E
:100AEA00002426F0772312F40094FFDE172E7EE10D
:100AFA00112032F07A95EE0FFF1F661F111CF9CFF5
:100B0A00EF2FF62F612D5F938ADF5F9108954F9340
:100B1A00AF01FD01DA01AB01BC01CA01402D012C74
:100B2A00142E4F910895EA0FFB1F681F0895E09550
:100B3A00F0956095EF5FFF4F6F4F08955F9381DFE8
:100B4A00903871F150E8152604C05F937ADF903827
:100B5A0039F1703821F1572F591B2BF112F4D7DFD5
:100B6A00FACF583118F0AA27BB278827583028F01F
:100B7A00AB2FB82F88275850F9CF552329F08695DF
:100B8A00B795A7955A95D9F7502D512572F0CBDF15
:100B9A0038F46795F795E795739513F41FC0B7DF97
:100BAA003EDF5F910895D8F7FBCFEA1BFB0B680B7A
:100BBA0051F010F40094BBDF662392F3EE0FFF1F8F
:100BCA00661F7A95CBF7EE27FF27BF015F9108953D
:100BDA00EFEFFFEF6FE77FEF5F910895EFEFFFEF22
:100BEA006FE77FE75F9108955F932BDF703859F3C2
:100BFA00903849F301240894791F23F424F3002040
:100C0A003AF3ECCF0F921F932F933F934F931127F1
:100C1A0022279927689FA0018F9F302D410D591FC8
:100C2A006B9F300D411D591F8E9F27D0BF9F25D026
:100C3A006A9F23D0BE9F1DD0AF9F1BD0AE9F110DC0
:100C4A00291F391F491F591FE32FF42F652F522FD0
:100C5A004F913F912F911F910F9066232AF0550FC4
:100C6A00EE1FFF1F661F02C073954BF2CEDE5F9127
:100C7A000895100D211D391F02C0200D311D491F75
:100C8A00591F08955F93DDDE703821F411200AF4AC
:100C9A009FCFA4CF903809F496CF01240894970BDC
:100CAA001BF4D4F30020F3CF792F1F932F933F9394
:100CBA004F931124112722273327A90190E2AE1757
:100CCA00BF078607410730F0AE1BBF0B860B410BEF
:100CDA00089401C08894551F221F331F111CAA1F94
:100CEA00BB1F881F441F9A9551F7F901612D4F9137
:100CFA003F912F911F91662332F0550FEE1FFF1F70
:100D0A00661F7A954BF281DE5F91089599239AF0D6
:100D1A00772342F0971748F029F4AE17BF078607E2
:100D2A0020F031F09894889408959894089408953E
:100D3A001894889408957723C2F7971798F3A9F718
:100D4A00EA17FB07680788F399F3ECCF109639F096
:100D5A00A89580ED97E00197F1F71197C9F70895E3
:00000001FF
