:020000000C945E
:100002004E000C9400000C9400000C9400000C9420
:1000120000000C9400000C9400000C9400000C945E
:1000220000000C9400000C9400000C9400000C944E
:1000320000000C9400000C9400000C9400000C943E
:1000420000000C9400000C9400000C9400000C942E
:1000520000001027E80364000A00010000100001FC
:1000620010000100686920323A200042504D3A20C7
:10007200000080C001002D4E414E00494E46000056
:10008200070060026600060067026D0002002D0490
:1000920074000100310476000000F894EE27ECBBF6
:1000A200F1E0F5BFE5BF8DE0A2E0BB27ED938A95B5
:1000B200E9F780E098E0A0E6ED930197E9F7E2E83E
:1000C200F0E085919591009761F0A591B591059029
:1000D2001590BF01F00105900D920197E1F7FB0128
:1000E200F0CFEFE5EDBFE8E0EEBFC0E6D2E00C9462
:1000F2000C021A931A2FE12FE064E7B98BE18A957B
:10010200F1F7369A349BFECF349AE4B1F5B10C94F0
:1001120037031A93A0E10E940903772466248824F6
:100122009924BB24552410E0103470F5E12FADE67C
:10013200B2E0F0E00E940D04FF93EF93E12FFF275E
:10014200662777270E947405A6E5BEE089EC90E455
:100152000E94FD05DF01CB01E0E0F0E060E872E41F
:100162000E944B06DF01CB010E948103A0E0B0E0B8
:1001720080E893E40E94FD050E943D05AF91BF9186
:10018200ED93FC931F5FD0CF0C943703BA93AA93DD
:1001920066970E946C0400E010E0EC8DA1E0B0E0F4
:1001A2000E948604EA8BFB8B31979F01E1E0F0E02D
:1001B200EC8FFD8FAC8DBD8D2A173B070CF452C01E
:1001C200EA89FB89E88FF98FE88DF98DF595E79536
:1001D200E88FF98FA88DB98DA00FB11F2A173B07A1
:1001E2009CF33197E023F123A88DB98DEA0FFB1F11
:1001F2008F01EC8DFD8DE017F10774F50E9412045A
:10020200EC87FD87EC8DFD8D0E941B040F01F80128
:100212000E941204D001ED93FC93F8010E941B048A
:10022200AC85BD85A083B183EC8DFD8D0E941E043B
:10023200EA87FB87EC8DFD8D0E9427040F01F801F0
:100242000E941E04D001ED93FC93F8010E94270442
:10025200AA85BB85A083B183EC8DFD8D3196EC8F91
:10026200FD8FA8CFE1E0F0E0E88FF98FE5E0F0E064
:10027200EE8BFF8BEA89FB89A88DB98DAE17BF077C
:100282000CF0C5C0E88DF98DEE0FFF1FEC8BFD8BD6
:10029200E0E0EC8FED8FE88DF98DAC8DBD8DAE1762
:1002A200BF070CF0AAC0EE890E948604EA8FFB8F7A
:1002B200AA8DBB8DAA0FBB1FA357BD4FED91FD9118
:1002C200E887F987EA8DFB8DADE6B2E00E942A0449
:1002D2000E94E3040E947A04EE83FF83E885F98595
:1002E200F595E795E887F987EE81FF81F595E79522
:1002F200EE83FF834C8D5D8DEA89FB894E175F0784
:100302000CF075C0E88DF98DE40FF51FEA8FFB8FB5
:100312000E9412040E942F040E941E04AE81BF811B
:100322000E94AA04DB01AE1BBF0BFD010E949704D1
:10033200EC87FD87EA8DFB8D0E941E040E942F042C
:100342000E941204AE81BF810E94AA04DB01AE0F9B
:10035200BF1FFD010E949704EA87FB87FA010E94F2
:100362001204F595E795E88BF98BFA010E941E04B9
:10037200F595E795EE87FF87EA8DFB8D0E941B04BA
:100382000F01AC85BD85E889F989EA1BFB0BD00119
:10039200ED93FC93EA8DFB8D0E9427040F01AA8541
:1003A200BB85EE85FF85EA1BFB0BD001ED93FC9329
:1003B200FA010E941B040F01EC85FD85A889B98909
:1003C200EA0FFB1FD001ED93FC93FA010E94270470
:1003D2000F01EA85FB85AE85BF85EA0FFB1FD001C1
:1003E200ED93FC93EC89FD894E0F5F1F85CFEC8D59
:1003F200FD8D3196EC8FFD8F4ECFEE89FF893197BF
:10040200EE8BFF8BEC89FD89E88FF98F33CF0E9449
:100412007304A29608957DDEE0E4E7B9E6EAE6B960
:10042200E0E0E0BFA0E065DE5E2EE62DF0E0E35105
:10043200FD4F50826394E0E46E1608F471C010E040
:10044200103490F40E943704E0E0F0E0ED93FC9366
:100452000E943C04E12FF0E0E351FD4FF081E0E027
:10046200ED93FC931F5FECCFEDEAF3E0FA93EA938E
:10047200EDE2F3E0FA93EA93A6E0B0E087DE8824A7
:100482009924BB2410E0103238F522970E943C04D4
:100492000D901C900E943C04ED91FD91D0010E94B0
:1004A200AA04BF010E9437040D901C900E943704D9
:1004B200ED91FD91D0010E94AA04E60FF71FE88397
:1004C200F983A881B9818A169B061CF488809980D9
:1004D200B12E22961F5FD7CFAB2DECE3EA9FF0013E
:1004E200DF01E0E2F0E00E94C2044E2EE0E0EA9377
:1004F200A0E04BD0A7E6B2E07AD0A42DB0E0EAE0CB
:10050200F0E00E94C204E05DAE2F5DD0A42DBB27B7
:10051200EAE0F0E00E94C704E05DAE2F54D066240A
:10052200AEE1B0E00E94AF067DCFFFCF1A931A2F43
:1005320014FF02C0969A01C0969815FF02C0959AC0
:1005420001C0959816FF02C0949A01C0949817FFB3
:1005520002C0939A01C093988DE08A95F1F7C29AEE
:100562008DE08A95F1F7C2988DE08A95F1F77EC009
:10057200AA93A881DBDFE881E295E883A881D6DF30
:1005820085E88A95F1F7219608951A930A931A2F0E
:100592000A81E12FF0E0E35DFB4FE081E00FAE2F37
:1005A200E7DFA02ED12E1981088123960895A2E0BB
:1005B2000E944104ACE0DCDFA1E00E944104E0E0E3
:1005C200DE2EAE2E08951A931A2F1A3011F0AC14A3
:1005D20040F0E0E0EA93D394AD2DD7DF1A3009F46E
:1005E20045C0A394C09AA12FC3DFC0983FC00E9408
:1005F2006E049D01D9012F5F3F4FEC911E2FE03019
:1006020019F0A12FE0DFF6CF0E9475040C947F034E
:100612001A931A2F8E9A8D9A8C9A8B9ABA9AB89AA2
:10062200B99AC298C098C198C12EE12FE058E093C0
:100632002F04E12FE054E0933004A4E1B0E00E94E3
:10064200AF060E9447040E9447040E944704A0E2AA
:100652006DDF88EC90E00197F1F7A8E289DFA4E072
:1006620087DFA5E885DFA6E083DFA1DF1991089582
:100672000E94F6047B816A81F981E88177FB770F1A
:1006820067FD7160972F9E5781F078F0983190F452
:10069200AA27BB27882708948795B795A7959A9587
:1006A200D1F7EA23FB23682305C0E8947727EE27D6
:1006B200FF2766276F77769508F4606877F9A99126
:1006C200B99189919991EA17FB076807790797FB16
:1006D20008950E94F6040E94EC040E9439030E94CD
:1006E200F10419F40E94E70409C0E6F70E94E70446
:1006F200A0E0B0E080E89FE30E94A7052496089559
:100702000E94F60424971A9310E00E944F04E3E833
:10071200F9EF62E27EE30E94FD050E945404D9DFF4
:100722000E944F040E94FB040E94A7050E945404E9
:10073200E0E0F0E060E07FE30E948F0609F008F459
:1007420009C00E945904A0E0B0E080E09FE30E944B
:100752005E0411E00E944F04E0E0F0E060E87EE316
:100762000E948F0609F008F408C00E944F04E0E0DE
:10077200F0E060E07FE30E945E04103041F00E94EE
:1007820059040E940805ED83FE836F8378870E94D7
:1007920059040E944F040E94FD05E983FA836B838A
:1007A2007C83A1EBB4EC86E292E40E94FD05DF01BA
:1007B200CB01EDE1F5EE6DE272E40E94FB040E94D2
:1007C200A7050E946504ACE4B3E584E091E40E94CD
:1007D200AE050E944F040E94FD057F936F93FF9325
:1007E200EF93E981FA816B817C81A1E1BDEE8EED0F
:1007F2009FE30E94AE050E946504AEE5BBE788EA6E
:100802009FE30E94AE05AF91BF918F919F910E948D
:100812004B06188129960895EE0FFF1FEA0FFB1F62
:100822000895A8A1B9A1EE0FFF1FAE0FBF1FED9152
:10083200FD910895A8A1B9A1EFCFAE8DBF8DEE0FA6
:10084200FF1FAE0FBF1FED91FD910895AE8DBF8DBD
:10085200E3CFEE0FFF1FAE0FBF1F0895A885B98526
:100862000E94AA04BF01EA8DFB8D0895E12FADE23B
:10087200B3E0F0E0EECFE12FADEAB3E0F0E0E9CF94
:100882000E94B902A3E0B0E00C94AF06A0E30E947C
:10089200970288EC90E00197F1F70895AD81BE814F
:1008A2008F8198850895ED83FE836F837887F6CFD5
:1008B200ED81FE816F81788508950E94A705ED8301
:1008C200FE836F8378870895A981BA818B819C8189
:1008D2000E94FD0508955A934A933A932A931A93D4
:1008E2000A9308955D814C813B812A811981088197
:1008F2000895F195E195F0400895F0956095709511
:10090200E195FF4F6F4F7F4F0895EE230E2EE8E0E3
:100912001E2EFD0151F0011420F0FE2FE0E001181F
:1009220021F0EE0FFF1F0A94E1F70895EF2FFF2742
:10093200E7FDFFEF0895FE2FFF0FFF0B6F2F7F2FB5
:100942000895FA9FF02DEB9FF00DEA9FE02DF10D37
:1009520008952AD0F6DF0EF4CCDF08950024112486
:1009620090E1AA0FBB1F001C111C0E1A1F0A18F4DB
:100972000E0E1F1E01C0A1609A9599F7FD01D001CC
:10098200089512D0EBDF0EF4B4DF0895E894B7FFB8
:1009920004C0B195A195B0406894F7FDAADFDEDFEF
:1009A200FD010EF4A6DF0895E894F7FF02C0A1DF6F
:1009B2006894B7FF06C0B195A195B04000F80394C2
:1009C20000FA0895ED91FC9111970895E881F9815B
:1009D2006A817B810895A881B9818A819B8108956A
:1009E200E883F9836A837B8308959A938A93BA93FF
:1009F200AA930895182E862F612D192E972F712DE7
:100A02001B2EBF2FF12D1A2EAE2FE12D08953097F8
:100A12006040704009F070580895552342F45038F0
:100A220011F4E0FF04C03196691F791F6BF050E8A2
:100A3200572711F45F93CFC05F3F31F0660F000C70
:100A420057956795752F08955F9300200AF0CEC0E1
:100A5200C7C050E8192E1522880F991F9527550FE8
:100A6200879550E8072E0522660F771F7527550FC9
:100A720067950895689401C0E8945F93F2DF703837
:100A820018F07F3F08F4A7C056E1571BAAF451950E
:100A920058300EF4593030F0EFEFFFEF6FEF7FE791
:100AA20077F91AC077275523B9F0EE0FFF1F661F9B
:100AB200771F5A95D1F710C07727583028F0EF2FBB
:100AC200F62F672F5850F9CF552331F07695679559
:100AD200F795E7955A95D1F700200AF40EDF5F915A
:100AE2000895689401C0E894309760407040B1F076
:100AF200002426F0772312F40094FFDE172E7EE105
:100B0200112032F07A95EE0FFF1F661F111CF9CFEC
:100B1200EF2FF62F612D5F938ADF5F9108954F9338
:100B2200AF01FD01DA01AB01BC01CA01402D012C6C
:100B3200142E4F910895EA0FFB1F681F0895E09548
:100B4200F0956095EF5FFF4F6F4F08955F9381DFE0
:100B5200903871F150E8152604C05F937ADF90381F
:100B620039F1703821F1572F591B2BF112F4D7DFCD
:100B7200FACF583118F0AA27BB278827583028F017
:100B8200AB2FB82F88275850F9CF552329F08695D7
:100B9200B795A7955A95D9F7502D512572F0CBDF0D
:100BA20038F46795F795E795739513F41FC0B7DF8F
:100BB2003EDF5F910895D8F7FBCFEA1BFB0B680B72
:100BC20051F010F40094BBDF662392F3EE0FFF1F87
:100BD200661F7A95CBF7EE27FF27BF015F91089535
:100BE200EFEFFFEF6FE77FEF5F910895EFEFFFEF1A
:100BF2006FE77FE75F9108955F932BDF703859F3BA
:100C0200903849F301240894791F23F424F3002037
:100C12003AF3ECCF0F921F932F933F934F931127E9
:100C220022279927689FA0018F9F302D410D591FC0
:100C32006B9F300D411D591F8E9F27D0BF9F25D01E
:100C42006A9F23D0BE9F1DD0AF9F1BD0AE9F110DB8
:100C5200291F391F491F591FE32FF42F652F522FC8
:100C62004F913F912F911F910F9066232AF0550FBC
:100C7200EE1FFF1F661F02C073954BF2CEDE5F911F
:100C82000895100D211D391F02C0200D311D491F6D
:100C9200591F08955F93DDDE703821F411200AF4A4
:100CA2009FCFA4CF903809F496CF01240894970BD4
:100CB2001BF4D4F30020F3CF792F1F932F933F938C
:100CC2004F931124112722273327A90190E2AE174F
:100CD200BF078607410730F0AE1BBF0B860B410BE7
:100CE200089401C08894551F221F331F111CAA1F8C
:100CF200BB1F881F441F9A9551F7F901612D4F912F
:100D02003F912F911F91662332F0550FEE1FFF1F67
:100D1200661F7A954BF281DE5F91089599239AF0CE
:100D2200772342F0971748F029F4AE17BF078607DA
:100D320020F031F098948894089598940894089536
:100D42001894889408957723C2F7971798F3A9F710
:100D5200EA17FB07680788F399F3ECCF109639F08E
:100D6200A89580ED97E00197F1F71197C9F70895DB
:00000001FF
