:040000000C94470015
:100004000C9400000C9400000C9400000C9400006C
:100014000C9400000C9400000C9400000C9400005C
:100024000C9400000C9400000C9400000C9400004C
:100034000C9400000C9400000C9400000C9400003C
:100044000C9400000C9400000C9400000C9400002C
:100054001027E80364000A000100001000011000EA
:10006400010042504D3A200080C001002D4E414E07
:1000740000494E46000006006002660002002604A5
:100084006C0001002A046E000000F894EE27ECBB1B
:10009400F1E0F5BFE5BF8DE0A2E0BB27ED938A95C3
:1000A400E9F780E098E0A0E6ED930197E9F7EAE745
:1000B400F0E085919591009761F0A591B591059037
:1000C4001590BF01F00105900D920197E1F7FB0136
:1000D400F0CFEFE5EDBFE8E0EEBFC0E6D2E00C9470
:1000E400D0011A931A2FE12FE064E7B98BE18A95C6
:1000F400F1F7369A349BFECF349AE4B1F5B10C94FF
:10010400E5021A93A0E135D2E0E4E7B9E6EAE6B9FC
:10011400E0E0E0BF7724662488249924BB24552496
:1001240010E0103438F5E12FA6E6B2E0F0E0F8D2A2
:10013400FF93EF93E12FFF27662777276CD4A6E57B
:10014400BEE089EC90E4F0D4DF01CB01E0E0F0E024
:1001540060E872E437D5DF01CB017DD2A0E0B0E0E6
:1001640080E893E4E1D420D4AF91BF91ED93FC9364
:100174001F5FD7CF0C94E502BA93AA9366975BD31B
:1001840000E010E0EC8DA1E0B0E06FD3EA8BFB8BD4
:1001940031979F01E1E0F0E0EC8FFD8FAC8DBD8DD8
:1001A4002A173B070CF446C0EA89FB89E88FF98FCC
:1001B400E88DF98DF595E795E88FF98FA88DB98DC0
:1001C400A00FB11F2A173B079CF33197E023F123BB
:1001D400A88DB98DEA0FFB1F8F01EC8DFD8DE01703
:1001E400F10734F5A2D2A6D2EC87FD879ED298D22D
:1001F4000F01F801A8A1B9A19DD2A3D2A8A1B9A1C8
:100204008FD2AC85BD85A083B183A0D293D2EA8777
:10021400FB879CD285D20F01F801AE8DBF8D8AD2A7
:1002240090D2AE8DBF8D7CD2AA85BB85A083B183CD
:1002340092D2B4CFE1E0F0E0E88FF98FE5E0F0E0AE
:10024400EE8BFF8BEA89FB89A88DB98DAE17BF07AA
:100254000CF0A1C0E88DF98DEE0FFF1FEC8BFD8B28
:10026400E0E0EC8FED8FE88DF98DAC8DBD8DAE1790
:10027400BF070CF086C0EE89F8D2EA8FFB8FAA8DF7
:10028400BB8DAA0FBB1FAA57BD4FED91FD91E88707
:10029400F987EA8DFB8DA6E6B2E063D2ED91FC917D
:1002A4001197D7D2EE83FF83E885F985F595E79515
:1002B400E887F987EE81FF81F595E795EE83FF8363
:1002C4004C8D5D8DEA89FB894E175F070CF057C092
:1002D400E88DF98DE40FF51FEA8FFB8F47D24BD2DF
:1002E4004FD253D2AE1BBF0B55D2EC87FD8748D2F9
:1002F40042D23CD24AD2AE0FBF1F4CD2EA87FB8710
:10030400FA01A8A1B9A116D2F595E795E88BF98B66
:10031400FA01AE8DBF8D0ED2F595E795EE87FF8776
:10032400EA8DFB8DA8A1B9A1FBD10F01AC85BD85D8
:10033400E889F98935D2EA8DFB8DAE8DBF8DF0D178
:100344000F01AA85BB85EE85FF852AD2FA01A8A1F3
:10035400B9A1E6D10F01EC85FD85A889B98926D21A
:10036400FA01AE8DBF8DDCD10F01EA85FB85AE8528
:10037400BF851CD2EC89FD894E0F5F1FA3CFEBD143
:1003840072CFEE89FF893197EE8BFF8BEC89FD8963
:10039400E88FF98F57CF56D2A2960895B2DEA0E027
:1003A400A0DE5E2EE62DF0E0EA51FD4F508263940C
:1003B400E0E46E1608F46AC010E0103480F4FCD156
:1003C400E0E0F0E0ED93FC93FCD1E12FF0E0EA51A2
:1003D400FD4FF081E0E0ED93FC931F5FEECFE6EA82
:1003E400F3E0FA93EA93E6E2F3E0FA93EA93A6E001
:1003F400B0E0C2DE88249924BB2410E0103228F532
:100404002297DFD10D901C90E12FA6EAB3E0F0E033
:1004140091D1D00149D2BF01CFD10D901C90E12FD1
:10042400A6E2B3E0F0E086D1D0013ED2E60FF71F9A
:10043400E883F983A881B9818A169B061CF4888015
:100444009980B12E22961F5FD9CFAB2DECE3EA9FA2
:10045400F001DF01E0E2F0E03FD24E2EE0E0EA936B
:10046400A0E048D0A0E6B2E075D0A42DB0E0EAE068
:10047400F0E032D2E05DAE2F59D0A42DBB27EAE0E4
:10048400F0E02FD2E05DAE2F51D06624AEE1B0E0B3
:10049400FDD385CFFFCF1A931A2F14FF02C0969A6B
:1004A40001C0969815FF02C0959A01C0959816FF51
:1004B40002C0949A01C0949817FF02C0939A01C095
:1004C40093988DE08A95F1F7C29A8DE08A95F1F7B9
:1004D400C2988DE08A95F1F776C0AA93A881DBDFF4
:1004E400E881E295E883A881D6DF85E88A95F1F76B
:1004F400219608951A930A931A2F0A81E12FF0E0A6
:10050400EA5DFB4FE081E00FAE2FE7DFA02ED12E96
:100514001981088123960895A2E058D1ACE0DDDF6B
:10052400A1E054D1E0E0DE2EAE2E08951A931A2FE6
:100534001A3011F0AC1440F0E0E0EA93D394AD2DFE
:10054400D9DF1A3009F43FC0A394C09AA12FC5DFA4
:10055400C09839C072D19D01D9012F5F3F4FEC91F2
:100564001E2FE03019F0A12FE1DFF6CF6DD10C94EE
:100574002B031A931A2F8E9A8D9A8C9A8B9ABA9A65
:10058400B89AB99AC298C098C198C12EE12FE05880
:10059400E0932804E12FE054E0932904A4E1B0E0BF
:1005A40075D318D117D116D1A0E275DF88EC90E08D
:1005B4000197F1F7A8E291DFA4E08FDFA5E88DDFD2
:1005C400A6E08BDFA9DF19910895A7D17B816A8109
:1005D400F981E88177FB770F67FD7160972F9E574C
:1005E40081F078F0983190F4AA27BB2788270894E3
:1005F4008795B795A7959A95D1F7EA23FB236823A6
:1006040005C0E8947727EE27FF2766276F7776954E
:1006140008F4606877F9A991B99189919991EA17D9
:10062400FB076807790797FB089577D1A881B981FB
:100634008A819B81CADFE883F9836A837B8311F40F
:10064400D0D007C0EEF7CDD0A0E0B0E080E89FE3C3
:1006540015D22496089561D124971A9310E0C6D038
:10066400E3E8F9EF62E27EE35FD2C5D0DEDFBED01D
:1006740059D104D2C0D0C4D0E9D209F008F407C0DB
:10068400C4D0A0E0B0E080E09FE3C4D011E0AED0DD
:10069400E0E0F0E060E87EE3D9D209F008F403C0BA
:1006A400A5D0AED0B7D0103031F0AFD048D1ED8363
:1006B400FE836F837887A9D099D036D2E983FA83F1
:1006C4006B837C83ADD0A1EBB4EC86E292E42CD2B4
:1006D400DF01CB01EDE1F5EE6DE272E423D1CED181
:1006E400A4D0ACE4B3E584E091E4CFD17FD01CD2B4
:1006F4007F936F93FF93EF9393D0A1E1BDEE8EEDC3
:100704009FE3C3D192D0AEE5BBE788EA9FE3BDD1B6
:10071400AF91BF918F919F9155D2188129960895D9
:10072400EE0FFF1FEA0FFB1F0895EC8DFD8DA8A1AE
:10073400B9A10895EE0FFF1FAE0FBF1FED91FD91FC
:100744000895D001ED93FC93F8010895EC8DFD8D8F
:10075400AE8DBF8D0895EC8DFD8D3196EC8FFD8FA0
:100764000895EE0FFF1FAE0FBF1F0895EA8DFB8D96
:10077400A8A1B9A1DFCFA885B98596D0BF010895F6
:10078400EA8DFB8DAE8DBF8DD5CFAE81BF818CD070
:10079400DB010895FD01EF2FFF27E7FDFFEF08952B
:1007A400EA1BFB0BD001ED93FC930895EA0FFB1FAA
:1007B400D001ED93FC930895E12FA6E2B3E0F0E0BD
:1007C400D0CFE12FA6EAB3E0F0E0CBCF86DEA3E002
:1007D400B0E05CC2A0E35FDE88EC90E00197F1F743
:1007E4000895E881F9816A817B810895AD81BE8194
:1007F4008F8198850895ED83FE836F837887F6CF84
:10080400E0E0F0E060E07FE30895ED81FE816F8138
:100814007885089533D1ED83FE836F8378870895B7
:10082400E981FA816B817C810895A981BA818B81E8
:100834009C817AD108955A934A933A932A931A93AE
:100844000A9308955D814C813B812A811981088135
:100854000895F195E195F0400895F09560957095AF
:10086400E195FF4F6F4F7F4F0895EE230E2EE8E082
:100874001E2EFD0151F0011420F0FE2FE0E00118BE
:1008840021F0EE0FFF1F0A94E1F70895FE2FFF0FEA
:10089400FF0B6F2F7F2F0895FA9FF02DEB9FF00D24
:1008A400EA9FE02DF10D08952AD0F6DF0EF4D1DF92
:1008B40008950024112490E1AA0FBB1F001C111CF1
:1008C4000E1A1F0A18F40E0E1F1E01C0A1609A957D
:1008D40099F7FD01D001089512D0EBDF0EF4B9DFD2
:1008E4000895E894B7FF04C0B195A195B040689409
:1008F400F7FDAFDFDEDFFD010EF4ABDF0895E89412
:10090400F7FF02C0A6DF6894B7FF06C0B195A195B2
:10091400B04000F8039400FA08959A938A93BA9326
:10092400AA930895182E862F612D192E972F712DB5
:100934001B2EBF2FF12D1A2EAE2FE12D08953097C7
:100944006040704009F070580895552342F45038BF
:1009540011F4E0FF04C03196691F791F6BF050E871
:10096400572711F45F93CFC05F3F31F0660F000C3F
:1009740057956795752F08955F9300200AF0CEC0B0
:10098400C7C050E8192E1522880F991F9527550FB7
:10099400879550E8072E0522660F771F7527550F98
:1009A40067950895689401C0E8945F93F2DF703806
:1009B40018F07F3F08F4A7C056E1571BAAF45195DD
:1009C40058300EF4593030F0EFEFFFEF6FEF7FE760
:1009D40077F91AC077275523B9F0EE0FFF1F661F6A
:1009E400771F5A95D1F710C07727583028F0EF2F8A
:1009F400F62F672F5850F9CF552331F07695679528
:100A0400F795E7955A95D1F700200AF426DF5F9110
:100A14000895689401C0E894309760407040B1F044
:100A2400002426F0772312F4009417DF172E7EE1BA
:100A3400112032F07A95EE0FFF1F661F111CF9CFBB
:100A4400EF2FF62F612D5F938ADF5F9108954F9307
:100A5400AF01FD01DA01AB01BC01CA01402D012C3B
:100A6400142E4F910895EA0FFB1F681F0895E09517
:100A7400F0956095EF5FFF4F6F4F08955F9381DFAF
:100A8400903871F150E8152604C05F937ADF9038EE
:100A940039F1703821F1572F591B2BF112F4D7DF9C
:100AA400FACF583118F0AA27BB278827583028F0E6
:100AB400AB2FB82F88275850F9CF552329F08695A6
:100AC400B795A7955A95D9F7502D512572F0CBDFDC
:100AD40038F46795F795E795739513F41FC0B7DF5E
:100AE4003EDF5F910895D8F7FBCFEA1BFB0B680B41
:100AF40051F010F40094BBDF662392F3EE0FFF1F56
:100B0400661F7A95CBF7EE27FF27BF015F91089503
:100B1400EFEFFFEF6FE77FEF5F910895EFEFFFEFE8
:100B24006FE77FE75F9108955F932BDF703859F388
:100B3400903849F301240894791F23F424F3002006
:100B44003AF3ECCF0F921F932F933F934F931127B8
:100B540022279927689FA0018F9F302D410D591F8F
:100B64006B9F300D411D591F8E9F27D0BF9F25D0ED
:100B74006A9F23D0BE9F1DD0AF9F1BD0AE9F110D87
:100B8400291F391F491F591FE32FF42F652F522F97
:100B94004F913F912F911F910F9066232AF0550F8B
:100BA400EE1FFF1F661F02C073954BF2CEDE5F91EE
:100BB4000895100D211D391F02C0200D311D491F3C
:100BC400591F08955F93DDDE703821F411200AF473
:100BD4009FCFA4CF903809F496CF01240894970BA3
:100BE4001BF4D4F30020F3CF792F1F932F933F935B
:100BF4004F931124112722273327A90190E2AE171E
:100C0400BF078607410730F0AE1BBF0B860B410BB5
:100C1400089401C08894551F221F331F111CAA1F5A
:100C2400BB1F881F441F9A9551F7F901612D4F91FD
:100C34003F912F911F91662332F0550FEE1FFF1F36
:100C4400661F7A954BF281DE5F91089599239AF09D
:100C5400772342F0971748F029F4AE17BF078607A9
:100C640020F031F098948894089598940894089505
:100C74001894889408957723C2F7971798F3A9F7DF
:100C8400EA17FB07680788F399F3ECCF109639F05D
:100C9400A89580ED97E00197F1F71197C9F70895AA
:00000001FF
